:04000000BFEF3EF020
:107CBC0079EC3EF0336E3350010B1200928A94969D
:107CCC009488949A929A800EC76E300EC66E1200EB
:107CDC00316E31C0C9FFC7A076EF3EF078EF3EF0B1
:107CEC0071EF3EF01200809A050E6EEC3EF0000E25
:107CFC0084EC3EF0326E808A32501200316E31C00C
:107D0C00C9FFC7A08CEF3EF08EEF3EF087EF3EF040
:107D1C00C9501200376E37C083FF849084928484DC
:107D2C00000E326E010E316E47EC3FF0849412005F
:107D3C00376E37C083FF848084928484000E326E49
:107D4C00010E316E47EC3FF0849412003150330237
:107D5C00F3CF35F0F4CF36F031503402F3503626F1
:107D6C0032503302F350362635C031F036C032F083
:107D7C001200A40EF66E7D0EF76E000EF86E00EE7D
:107D8C0001F010EE30F00900F5CFEEFFE550E150B8
:107D9C00FAE100016FEF3FF00301310B3210230CBD
:107DAC000460BFC0C6101703F80A190A2A10CB0CBE
:107DBC0088132D6170726F746575732D65657072A3
:107DCC006F6D380E010681005EEC3EF0E806D8B40B
:107DDC00F2EF3EF0F4EF3EF0EAEF3EF0809A030E45
:107DEC006EEC3EF035506EEC3EF034506EEC3EF0E6
:107DFC00000E84EC3EF0366E808A365012005EEC3B
:107E0C003EF0E806D8B40DEF3FF00FEF3FF005EF72
:107E1C003FF0809A060E6EEC3EF0808A809A020E3D
:107E2C006EEC3EF035506EEC3EF034506EEC3EF0A5
:107E3C0036506EEC3EF0808A120037C031F038C0FC
:107E4C0032F0000E346E640E336EACEC3EF031C08A
:107E5C0039F032C03AF03B6A3C6A3906000E3A5AA5
:107E6C003B5A3C5A39280AE13A2808E13B2806E1FA
:107E7C003C28D8A444EF3FF046EF3FF033EF3FF0FF
:107E8C001200000E346E000E336E63EF3FF0000EE6
:107E9C00366E000E356E354A362A36BE5FEF3FF031
:107EAC00365009E1870E355CD8A05FEF3FF061EFEB
:107EBC003FF051EF3FF0334A342A3150335C3250AB
:107ECC003458D8A06CEF3FF06EEF3FF04DEF3FF021
:107EDC00120064EC3EF0000E956E0F0EC16E000E9B
:107EEC00966E000E326E320E316E47EC3FF0000E85
:107EFC00426E000E416ED8904134D96E4234DA6E27
:107F0C00010ED926000EDA22DECF34F0DDCF35F0AB
:107F1C001D0E4124D96E000E4220DA6EDF50366EF3
:107F2C0005EC3FF0414A422A42BEA6EF3FF04250D8
:107F3C0009E10E0E415CD8A0A6EF3FF0A8EF3FF090
:107F4C0081EF3FF0000E3E6E000E3D6EBFEF3FF036
:107F5C002B0E3D24D96E000E3E20DA6EDF5090ECD5
:107F6C003EF0000E386E640E376E23EC3FF03D4A47
:107F7C003E2A2B0E3D24D96E000E3E20DA6EDF50C9
:107F8C00D8A4CBEF3FF0CDEF3FF0AEEF3FF0000EBB
:107F9C00406E000E3F6ED8903F34D96E4034DA6E8E
:107FAC00010ED926000EDA22DECF34F0DDCF35F00B
:107FBC00EAEC3EF09EEC3EF0000E386E640E376E2E
:107FCC0023EC3FF03F4A402A40BEF6EF3FF04050D2
:107FDC0009E10E0E3F5CD8A0F6EF3FF0F8EF3FF052
:107FEC00D1EF3FF0010E386EF40E376E23EC3FF0FC
:047FFC0000EF00F0A2
:020000040020DA
:08000000FFFFFFFFFFFFFFFF00
:020000040030CA
:0E000000FF02191EFF8385FF0FC00FE00F40A7
:00000001FF
