:0400000019EF3FF0C5
:107DA800EFEC3EF0336E3350010B1200928A94963A
:107DB8009488949A929A800EC76E300EC66E1200FE
:107DC800316E31C0C9FFC7A0ECEF3EF0EEEF3EF0D8
:107DD800E7EF3EF01200809A050EE4EC3EF0000E4C
:107DE800FAEC3EF0326E808A32501200316E31C0A9
:107DF800C9FFC7A002EF3FF004EF3FF0FDEF3EF0F0
:107E0800C950120031503302F3CF35F0F4CF36F0B9
:107E180031503402F350362632503302F3503626AE
:107E280035C031F036C032F01200580EF66E7E0EB4
:107E3800F76E000EF86E00EE01F010EE30F009005B
:107E4800F5CFEEFFE550E150FAE10001A1EF3FF078
:107E58000301310B3210230C0460BFC0C610170396
:107E6800F80A190A2A10CB0C88132D611E50AF424C
:107E7800C0F9A4B0999282F880988883C6A1868EAA
:107E8800D4EC3EF0E806D8B44CEF3FF04EEF3FF0AC
:107E980044EF3FF0809A030EE4EC3EF03550E4ECFA
:107EA8003EF03450E4EC3EF0000EFAEC3EF0366E54
:107EB800808A36501200D4EC3EF0E806D8B467EF5A
:107EC8003FF069EF3FF05FEF3FF0809A060EE4EC79
:107ED8003EF0808A809A020EE4EC3EF03550E4ECE5
:107EE8003EF03450E4EC3EF03650E4EC3EF0808A4C
:107EF800120037C031F038C032F0000E346E640E14
:107F0800336E06EC3FF031C039F032C03AF03B6ACC
:107F18003C6A3906000E3A5A3B5A3C5A39280AE15B
:107F28003A2808E13B2806E13C28D8A49EEF3FF018
:107F3800A0EF3FF08DEF3FF01200DAEC3EF0000EBC
:107F4800956E21C083FF000E406E000E3F6ED890E4
:107F58003F34D96E4034DA6E010ED926000EDA228B
:107F6800DECF34F0DDCF35F0210E3F24D96E000E80
:107F78004020DA6EDF50366E5FEC3FF03F4A402A11
:107F880040BED0EF3FF0405009E1100E3F5CD8A052
:107F9800D0EF3FF0D2EF3FF0ABEF3FF0000E3E6E78
:107FA800000E3D6ED8903D34D96E3E34DA6E010E27
:107FB800D926000EDA22DECF34F0DDCF35F044ECDE
:107FC8003FF0836E010E386EF40E376E7DEC3FF095
:107FD8003D4A3E2A3EBEFAEF3FF03E5009E1100E00
:107FE8003D5CD8A0FAEF3FF0FCEF3FF0D6EF3FF052
:087FF800D2EF3FF000EF00F0B2
:020000040020DA
:08000000FFFFFFFFFFFFFFFF00
:020000040030CA
:0E000000FF02191EFF8385FF0FC00FE00F40A7
:00000001FF
